:100000000C942A000C943C000C943C000C94470285
:100010000C943C000C943C000C943C000C943C0070
:100020000C943C000C943C000C943C000C94A301F8
:100030000C943C000C943C000C943C000C943C0050
:100040000C943C000C943C000C943C000C943C0040
:100050000C943C0011241FBECFE5D8E0DEBFCDBF1D
:1000600010E0A0E6B0E001C01D92A536B107E1F7AF
:100070000E948E010C949B020C940000DF93CF939E
:10008000CDB7DEB7A1E3B0E0E1E3F0E080818460CA
:100090008C93A1E3B0E0E1E3F0E0808188608C9391
:1000A000A1E3B0E0E1E3F0E0808180618C93A2E322
:1000B000B0E0E2E3F0E080818B7F8C93A2E3B0E0DC
:1000C000E2E3F0E08081877F8C93A2E3B0E0E2E39B
:1000D000F0E0808180618C93A1E3B0E0E1E3F0E0A7
:1000E000808180648C93A1E3B0E0E1E3F0E0808163
:1000F00080688C93A1E3B0E0E1E3F0E0808180626E
:100100008C93A2E3B0E0E2E3F0E080818F7B8C93FC
:10011000A2E3B0E0E2E3F0E080818F778C93A2E38A
:10012000B0E0E2E3F0E0808180628C93CF91DF91D8
:100130000895DF93CF93CDB7DEB7A2E3B0E0E2E35B
:10014000F0E080818B7F8C93A2E3B0E0E2E3F0E00B
:10015000808188608C93A2E3B0E0E2E3F0E08081EC
:1001600080648C93A2E3B0E0E2E3F0E080818F77DB
:100170008C93CF91DF910895DF93CF93CDB7DEB706
:10018000A2E3B0E0E2E3F0E0808184608C93A2E33C
:10019000B0E0E2E3F0E08081877F8C93A2E3B0E0FF
:1001A000E2E3F0E080818F7B8C93A2E3B0E0E2E3B6
:1001B000F0E0808180688C93CF91DF910895DF9388
:1001C000CF93CDB7DEB7A2E3B0E0E2E3F0E0808109
:1001D0008B7F8C93A2E3B0E0E2E3F0E08081886063
:1001E0008C93A2E3B0E0E2E3F0E080818F7B8C931C
:1001F000A2E3B0E0E2E3F0E0808180688C93CF91ED
:10020000DF910895DF93CF93CDB7DEB7A2E3B0E0DF
:10021000E2E3F0E0808184608C93A2E3B0E0E2E36B
:10022000F0E08081877F8C93A2E3B0E0E2E3F0E02E
:1002300080818F7B8C93A2E3B0E0E2E3F0E08081E9
:1002400080688C93CF91DF910895DF93CF93CDB7E2
:10025000DEB7A2E3B0E0E2E3F0E080818B7F8C9335
:10026000A2E3B0E0E2E3F0E0808188608C93A2E357
:10027000B0E0E2E3F0E080818F7B8C93A2E3B0E01A
:10028000E2E3F0E080818F778C93CF91DF91089546
:10029000DF93CF93CDB7DEB7A2E3B0E0E2E3F0E0C7
:1002A00080818B7F8C93A2E3B0E0E2E3F0E0808179
:1002B000877F8C93A2E3B0E0E2E3F0E080818F7B64
:1002C0008C93A2E3B0E0E2E3F0E0808180688C935D
:1002D000CF91DF910895DF93CF93CDB7DEB7A2E33F
:1002E000B0E0E2E3F0E080818B7F8C93A2E3B0E0AA
:1002F000E2E3F0E08081877F8C93A2E3B0E0E2E369
:10030000F0E080818F7B8C93A2E3B0E0E2E3F0E049
:1003100080818F778C93CF91DF910895DF93CF9376
:10032000CDB7DEB7A7E3B0E0E7E3F0E0808180611E
:100330008C93A8E3B0E0E8E3F0E0808180618C93E7
:100340000E94DD01FFCF1F920F920FB60F92112472
:100350002F938F939F93AF93BF93EF93FF93DF936D
:10036000CF93CDB7DEB78091610090916200019686
:100370009093620080936100A8E3B0E0E8E3F0E0CE
:1003800080818F7E8C93809161009091620023EC3C
:100390008135920720F01092620010926100CF9197
:1003A000DF91FF91EF91BF91AF919F918F912F912D
:1003B0000F900FBE0F901F901895DF93CF93CDB77E
:1003C000DEB7E2E5F0E08BEE8083A9E5B0E0E9E599
:1003D000F0E0808181608C93A3E5B0E0E3E5F0E09C
:1003E000808180688C93A3E5B0E0E3E5F0E0808154
:1003F00082608C93CF91DF910895DF93CF93CDB737
:10040000DEB7AAE3B0E0EAE3F0E0808181608C939C
:10041000CF91DF910895DF93CF93CDB7DEB7ABE3F4
:10042000B0E0EBE3F0E0808181608C93109260009B
:100430000E94DD01CF91DF910895DF93CF93CDB777
:10044000DEB7AFE5B0E0EFE5F0E080818F778C9329
:10045000A7E3B0E0E7E3F0E080818B7F8C93ABE52E
:10046000B0E0EBE5F0E0808180628C93A4E5B0E041
:10047000E4E5F0E080818F7B8C93AFE5B0E0EFE5C1
:10048000F0E0808180688C93CF91DF9108951F9276
:100490000F920FB60F9211242F933F935F936F9398
:1004A0007F938F939F93AF93BF93DF93CF93CDB7FA
:1004B000DEB780916100909162009C01220F331F92
:1004C000C901880F991F880F991F820F931F885C9D
:1004D00090402AE330E0B9010E948702CB0190935B
:1004E0006400809363001092620010926100CF91CB
:1004F000DF91BF91AF919F918F917F916F915F91AC
:100500003F912F910F900FBE0F901F901895AA1B2F
:10051000BB1B51E107C0AA1FBB1FA617B70710F0EE
:10052000A61BB70B881F991F5A95A9F78095909520
:0A053000BC01CD010895F894FFCF3F
:00000001FF
