:100000000C942A000C9434000C9434000C943400AA
:100010000C9434000C9434000C9434000C94340090
:100020000C9434000C9434000C9434000C94340080
:100030000C9434000C9434000C9434000C94340070
:100040000C9434000C9434000C9434000C94340060
:100050000C94340011241FBECFE5D8E0DEBFCDBF25
:100060000E9436000C948F010C940000DF93CF9314
:10007000CDB7DEB70E943F000E949A00FFCFDF930A
:10008000CF93CDB7DEB7A1E3B0E0E1E3F0E080814C
:1000900084608C93A1E3B0E0E1E3F0E080818860CC
:1000A0008C93A1E3B0E0E1E3F0E0808180618C9388
:1000B000A2E3B0E0E2E3F0E080818B7F8C93A2E3E7
:1000C000B0E0E2E3F0E08081877F8C93A2E3B0E0D0
:1000D000E2E3F0E0808180618C93A1E3B0E0E1E3B2
:1000E000F0E0808180648C93A1E3B0E0E1E3F0E094
:1000F000808180688C93A1E3B0E0E1E3F0E080814F
:1001000080628C93A2E3B0E0E2E3F0E080818F7B39
:100110008C93A2E3B0E0E2E3F0E080818F778C93F0
:10012000A2E3B0E0E2E3F0E0808180628C93CF91C3
:10013000DF910895DF93CF93CDB7DEB7A2E3B0E0B0
:10014000E2E3F0E080818B7F8C93A2E3B0E0E2E316
:10015000F0E0808188608C93A2E3B0E0E2E3F0E01D
:10016000808180648C93A2E3B0E0E2E3F0E08081E0
:100170008F778C93CF91DF910895DF93CF93CDB795
:10018000DEB7A2E3B0E0E2E3F0E0808184608C932C
:10019000A2E3B0E0E2E3F0E08081877F8C93A2E30A
:1001A000B0E0E2E3F0E080818F7B8C93A2E3B0E0EB
:1001B000E2E3F0E0808180688C93CF91DF91089535
:1001C000DF93CF93CDB7DEB7A2E3B0E0E2E3F0E098
:1001D00080818B7F8C93A2E3B0E0E2E3F0E080814A
:1001E00088608C93A2E3B0E0E2E3F0E080818F7B53
:1001F0008C93A2E3B0E0E2E3F0E0808180688C932E
:10020000CF91DF910895DF93CF93CDB7DEB7A2E30F
:10021000B0E0E2E3F0E0808184608C93A2E3B0E0A0
:10022000E2E3F0E08081877F8C93A2E3B0E0E2E339
:10023000F0E080818F7B8C93A2E3B0E0E2E3F0E01A
:10024000808180688C93CF91DF910895DF93CF9365
:10025000CDB7DEB7A2E3B0E0E2E3F0E080818B7FD0
:100260008C93A2E3B0E0E2E3F0E0808188608C93BD
:10027000A2E3B0E0E2E3F0E080818F7B8C93A2E325
:10028000B0E0E2E3F0E080818F778C93CF91DF9153
:100290000895DF93CF93CDB7DEB7A2E3B0E0E2E3FA
:1002A000F0E080818B7F8C93A2E3B0E0E2E3F0E0AA
:1002B0008081877F8C93A2E3B0E0E2E3F0E080816D
:1002C0008F7B8C93A2E3B0E0E2E3F0E08081806872
:1002D0008C93CF91DF910895DF93CF93CDB7DEB7A5
:1002E000A2E3B0E0E2E3F0E080818B7F8C93A2E3B5
:1002F000B0E0E2E3F0E08081877F8C93A2E3B0E09E
:10030000E2E3F0E080818F7B8C93A2E3B0E0E2E354
:10031000F0E080818F778C93CF91DF910895F894EE
:02032000FFCF0D
:00000001FF
